{
  "contractName": "BatteryStorage",
  "abi": [
    {
      "anonymous": false,
      "inputs": [
        {
          "components": [
            {
              "internalType": "uint256",
              "name": "unique_id",
              "type": "uint256"
            },
            {
              "internalType": "string",
              "name": "description",
              "type": "string"
            },
            {
              "internalType": "string",
              "name": "state",
              "type": "string"
            },
            {
              "internalType": "string[]",
              "name": "materials",
              "type": "string[]"
            }
          ],
          "indexed": false,
          "internalType": "struct BatteryStorage.Battery",
          "name": "newBattery",
          "type": "tuple"
        }
      ],
      "name": "LogBattery",
      "type": "event"
    },
    {
      "anonymous": false,
      "inputs": [
        {
          "components": [
            {
              "internalType": "uint256",
              "name": "unique_id",
              "type": "uint256"
            },
            {
              "internalType": "string",
              "name": "description",
              "type": "string"
            },
            {
              "internalType": "string",
              "name": "manufacturer",
              "type": "string"
            },
            {
              "internalType": "string[]",
              "name": "certifications",
              "type": "string[]"
            }
          ],
          "indexed": false,
          "internalType": "struct BatteryStorage.Material",
          "name": "newMaterial",
          "type": "tuple"
        }
      ],
      "name": "LogMaterial",
      "type": "event"
    },
    {
      "inputs": [
        {
          "internalType": "uint256",
          "name": "",
          "type": "uint256"
        }
      ],
      "name": "batteries",
      "outputs": [
        {
          "internalType": "uint256",
          "name": "unique_id",
          "type": "uint256"
        },
        {
          "internalType": "string",
          "name": "description",
          "type": "string"
        },
        {
          "internalType": "string",
          "name": "state",
          "type": "string"
        }
      ],
      "stateMutability": "view",
      "type": "function"
    },
    {
      "inputs": [
        {
          "internalType": "uint256",
          "name": "",
          "type": "uint256"
        }
      ],
      "name": "materials",
      "outputs": [
        {
          "internalType": "uint256",
          "name": "unique_id",
          "type": "uint256"
        },
        {
          "internalType": "string",
          "name": "description",
          "type": "string"
        },
        {
          "internalType": "string",
          "name": "manufacturer",
          "type": "string"
        }
      ],
      "stateMutability": "view",
      "type": "function"
    },
    {
      "inputs": [],
      "name": "getMaterialCount",
      "outputs": [
        {
          "internalType": "uint256",
          "name": "",
          "type": "uint256"
        }
      ],
      "stateMutability": "view",
      "type": "function"
    },
    {
      "inputs": [],
      "name": "getBatteryCount",
      "outputs": [
        {
          "internalType": "uint256",
          "name": "",
          "type": "uint256"
        }
      ],
      "stateMutability": "view",
      "type": "function"
    },
    {
      "inputs": [],
      "name": "getMaterials",
      "outputs": [
        {
          "components": [
            {
              "internalType": "uint256",
              "name": "unique_id",
              "type": "uint256"
            },
            {
              "internalType": "string",
              "name": "description",
              "type": "string"
            },
            {
              "internalType": "string",
              "name": "manufacturer",
              "type": "string"
            },
            {
              "internalType": "string[]",
              "name": "certifications",
              "type": "string[]"
            }
          ],
          "internalType": "struct BatteryStorage.Material[]",
          "name": "",
          "type": "tuple[]"
        }
      ],
      "stateMutability": "view",
      "type": "function"
    },
    {
      "inputs": [
        {
          "internalType": "uint256",
          "name": "unique_id",
          "type": "uint256"
        }
      ],
      "name": "getMaterial",
      "outputs": [
        {
          "components": [
            {
              "internalType": "uint256",
              "name": "unique_id",
              "type": "uint256"
            },
            {
              "internalType": "string",
              "name": "description",
              "type": "string"
            },
            {
              "internalType": "string",
              "name": "manufacturer",
              "type": "string"
            },
            {
              "internalType": "string[]",
              "name": "certifications",
              "type": "string[]"
            }
          ],
          "internalType": "struct BatteryStorage.Material",
          "name": "",
          "type": "tuple"
        }
      ],
      "stateMutability": "view",
      "type": "function"
    },
    {
      "inputs": [
        {
          "internalType": "uint256",
          "name": "unique_id",
          "type": "uint256"
        },
        {
          "internalType": "string",
          "name": "description",
          "type": "string"
        },
        {
          "internalType": "string",
          "name": "manufacturer",
          "type": "string"
        },
        {
          "internalType": "string[]",
          "name": "certifications",
          "type": "string[]"
        }
      ],
      "name": "setMaterial",
      "outputs": [],
      "stateMutability": "nonpayable",
      "type": "function"
    },
    {
      "inputs": [],
      "name": "getBatteries",
      "outputs": [
        {
          "components": [
            {
              "internalType": "uint256",
              "name": "unique_id",
              "type": "uint256"
            },
            {
              "internalType": "string",
              "name": "description",
              "type": "string"
            },
            {
              "internalType": "string",
              "name": "state",
              "type": "string"
            },
            {
              "internalType": "string[]",
              "name": "materials",
              "type": "string[]"
            }
          ],
          "internalType": "struct BatteryStorage.Battery[]",
          "name": "",
          "type": "tuple[]"
        }
      ],
      "stateMutability": "view",
      "type": "function"
    },
    {
      "inputs": [
        {
          "internalType": "uint256",
          "name": "unique_id",
          "type": "uint256"
        }
      ],
      "name": "getBattery",
      "outputs": [
        {
          "components": [
            {
              "internalType": "uint256",
              "name": "unique_id",
              "type": "uint256"
            },
            {
              "internalType": "string",
              "name": "description",
              "type": "string"
            },
            {
              "internalType": "string",
              "name": "state",
              "type": "string"
            },
            {
              "internalType": "string[]",
              "name": "materials",
              "type": "string[]"
            }
          ],
          "internalType": "struct BatteryStorage.Battery",
          "name": "",
          "type": "tuple"
        }
      ],
      "stateMutability": "view",
      "type": "function"
    },
    {
      "inputs": [
        {
          "internalType": "uint256",
          "name": "unique_id",
          "type": "uint256"
        },
        {
          "internalType": "string",
          "name": "description",
          "type": "string"
        },
        {
          "internalType": "string",
          "name": "state",
          "type": "string"
        },
        {
          "internalType": "string[]",
          "name": "input_materials",
          "type": "string[]"
        }
      ],
      "name": "setBattery",
      "outputs": [],
      "stateMutability": "nonpayable",
      "type": "function"
    }
  ],
  "bytecode": "0x608060405260008055600060015534801561001957600080fd5b50611e83806100296000396000f3fe608060405234801561001057600080fd5b506004361061009e5760003560e01c806380dfedcd1161006657806380dfedcd14610173578063bf2d978314610191578063cd0eabf3146101ad578063da6d8909146101cb578063e8229dcb146101fb5761009e565b806308393072146100a35780635f392c90146100c157806363050f8b146100f35780637a8e852614610111578063807e7c0414610143575b600080fd5b6100ab610217565b6040516100b891906111ab565b60405180910390f35b6100db60048036038101906100d69190611206565b610221565b6040516100ea939291906112c3565b60405180910390f35b6100fb61035b565b6040516101089190611556565b60405180910390f35b61012b60048036038101906101269190611206565b610622565b60405161013a939291906112c3565b60405180910390f35b61015d60048036038101906101589190611206565b61075c565b60405161016a91906115e9565b60405180910390f35b61017b610996565b604051610188919061173e565b60405180910390f35b6101ab60048036038101906101a6919061197b565b610c5c565b005b6101b5610d40565b6040516101c291906111ab565b60405180910390f35b6101e560048036038101906101e09190611206565b610d49565b6040516101f29190611aa7565b60405180910390f35b6102156004803603810190610210919061197b565b610f83565b005b6000600154905090565b600360205280600052604060002060009150905080600001549080600101805461024a90611af8565b80601f016020809104026020016040519081016040528092919081815260200182805461027690611af8565b80156102c35780601f10610298576101008083540402835291602001916102c3565b820191906000526020600020905b8154815290600101906020018083116102a657829003601f168201915b5050505050908060020180546102d890611af8565b80601f016020809104026020016040519081016040528092919081815260200182805461030490611af8565b80156103515780601f1061032657610100808354040283529160200191610351565b820191906000526020600020905b81548152906001019060200180831161033457829003601f168201915b5050505050905083565b6060600060015467ffffffffffffffff81111561037b5761037a61176a565b5b6040519080825280602002602001820160405280156103b457816020015b6103a1611068565b8152602001906001900390816103995790505b50905060005b60015481101561061a5760036000828152602001908152602001600020604051806080016040529081600082015481526020016001820180546103fc90611af8565b80601f016020809104026020016040519081016040528092919081815260200182805461042890611af8565b80156104755780601f1061044a57610100808354040283529160200191610475565b820191906000526020600020905b81548152906001019060200180831161045857829003601f168201915b5050505050815260200160028201805461048e90611af8565b80601f01602080910402602001604051908101604052809291908181526020018280546104ba90611af8565b80156105075780601f106104dc57610100808354040283529160200191610507565b820191906000526020600020905b8154815290600101906020018083116104ea57829003601f168201915b5050505050815260200160038201805480602002602001604051908101604052809291908181526020016000905b828210156105e157838290600052602060002001805461055490611af8565b80601f016020809104026020016040519081016040528092919081815260200182805461058090611af8565b80156105cd5780601f106105a2576101008083540402835291602001916105cd565b820191906000526020600020905b8154815290600101906020018083116105b057829003601f168201915b505050505081526020019060010190610535565b50505050815250508282815181106105fc576105fb611b29565b5b6020026020010181905250808061061290611b87565b9150506103ba565b508091505090565b600260205280600052604060002060009150905080600001549080600101805461064b90611af8565b80601f016020809104026020016040519081016040528092919081815260200182805461067790611af8565b80156106c45780601f10610699576101008083540402835291602001916106c4565b820191906000526020600020905b8154815290600101906020018083116106a757829003601f168201915b5050505050908060020180546106d990611af8565b80601f016020809104026020016040519081016040528092919081815260200182805461070590611af8565b80156107525780601f1061072757610100808354040283529160200191610752565b820191906000526020600020905b81548152906001019060200180831161073557829003601f168201915b5050505050905083565b610764611068565b6000600360008481526020019081526020016000206040518060800160405290816000820154815260200160018201805461079e90611af8565b80601f01602080910402602001604051908101604052809291908181526020018280546107ca90611af8565b80156108175780601f106107ec57610100808354040283529160200191610817565b820191906000526020600020905b8154815290600101906020018083116107fa57829003601f168201915b5050505050815260200160028201805461083090611af8565b80601f016020809104026020016040519081016040528092919081815260200182805461085c90611af8565b80156108a95780601f1061087e576101008083540402835291602001916108a9565b820191906000526020600020905b81548152906001019060200180831161088c57829003601f168201915b5050505050815260200160038201805480602002602001604051908101604052809291908181526020016000905b828210156109835783829060005260206000200180546108f690611af8565b80601f016020809104026020016040519081016040528092919081815260200182805461092290611af8565b801561096f5780601f106109445761010080835404028352916020019161096f565b820191906000526020600020905b81548152906001019060200180831161095257829003601f168201915b5050505050815260200190600101906108d7565b5050505081525050905080915050919050565b60606000805467ffffffffffffffff8111156109b5576109b461176a565b5b6040519080825280602002602001820160405280156109ee57816020015b6109db611090565b8152602001906001900390816109d35790505b50905060005b600054811015610c54576002600082815260200190815260200160002060405180608001604052908160008201548152602001600182018054610a3690611af8565b80601f0160208091040260200160405190810160405280929190818152602001828054610a6290611af8565b8015610aaf5780601f10610a8457610100808354040283529160200191610aaf565b820191906000526020600020905b815481529060010190602001808311610a9257829003601f168201915b50505050508152602001600282018054610ac890611af8565b80601f0160208091040260200160405190810160405280929190818152602001828054610af490611af8565b8015610b415780601f10610b1657610100808354040283529160200191610b41565b820191906000526020600020905b815481529060010190602001808311610b2457829003601f168201915b5050505050815260200160038201805480602002602001604051908101604052809291908181526020016000905b82821015610c1b578382906000526020600020018054610b8e90611af8565b80601f0160208091040260200160405190810160405280929190818152602001828054610bba90611af8565b8015610c075780601f10610bdc57610100808354040283529160200191610c07565b820191906000526020600020905b815481529060010190602001808311610bea57829003601f168201915b505050505081526020019060010190610b6f565b5050505081525050828281518110610c3657610c35611b29565b5b60200260200101819052508080610c4c90611b87565b9150506109f4565b508091505090565b600060405180608001604052808681526020018581526020018481526020018381525090508060026000878152602001908152602001600020600082015181600001556020820151816001019081610cb49190611d7b565b506040820151816002019081610cca9190611d7b565b506060820151816003019080519060200190610ce79291906110b8565b50905050600080815480929190610cfd90611b87565b91905055507f4f58243c54aeb6fbee25c01dace465a5fb9b77ae891287a498ee650b3ae4855a81604051610d319190611aa7565b60405180910390a15050505050565b60008054905090565b610d51611090565b60006002600084815260200190815260200160002060405180608001604052908160008201548152602001600182018054610d8b90611af8565b80601f0160208091040260200160405190810160405280929190818152602001828054610db790611af8565b8015610e045780601f10610dd957610100808354040283529160200191610e04565b820191906000526020600020905b815481529060010190602001808311610de757829003601f168201915b50505050508152602001600282018054610e1d90611af8565b80601f0160208091040260200160405190810160405280929190818152602001828054610e4990611af8565b8015610e965780601f10610e6b57610100808354040283529160200191610e96565b820191906000526020600020905b815481529060010190602001808311610e7957829003601f168201915b5050505050815260200160038201805480602002602001604051908101604052809291908181526020016000905b82821015610f70578382906000526020600020018054610ee390611af8565b80601f0160208091040260200160405190810160405280929190818152602001828054610f0f90611af8565b8015610f5c5780601f10610f3157610100808354040283529160200191610f5c565b820191906000526020600020905b815481529060010190602001808311610f3f57829003601f168201915b505050505081526020019060010190610ec4565b5050505081525050905080915050919050565b600060405180608001604052808681526020018581526020018481526020018381525090508060036000878152602001908152602001600020600082015181600001556020820151816001019081610fdb9190611d7b565b506040820151816002019081610ff19190611d7b565b50606082015181600301908051906020019061100e9291906110b8565b509050506001600081548092919061102590611b87565b91905055507fc94de6aa81facc095b5ac88879b1449b2f06a0ce179a691d9b577f1902ba46678160405161105991906115e9565b60405180910390a15050505050565b6040518060800160405280600081526020016060815260200160608152602001606081525090565b6040518060800160405280600081526020016060815260200160608152602001606081525090565b828054828255906000526020600020908101928215611100579160200282015b828111156110ff5782518290816110ef9190611d7b565b50916020019190600101906110d8565b5b50905061110d9190611111565b5090565b5b8082111561113157600081816111289190611135565b50600101611112565b5090565b50805461114190611af8565b6000825580601f106111535750611172565b601f0160209004906000526020600020908101906111719190611175565b5b50565b5b8082111561118e576000816000905550600101611176565b5090565b6000819050919050565b6111a581611192565b82525050565b60006020820190506111c0600083018461119c565b92915050565b6000604051905090565b600080fd5b600080fd5b6111e381611192565b81146111ee57600080fd5b50565b600081359050611200816111da565b92915050565b60006020828403121561121c5761121b6111d0565b5b600061122a848285016111f1565b91505092915050565b600081519050919050565b600082825260208201905092915050565b60005b8381101561126d578082015181840152602081019050611252565b60008484015250505050565b6000601f19601f8301169050919050565b600061129582611233565b61129f818561123e565b93506112af81856020860161124f565b6112b881611279565b840191505092915050565b60006060820190506112d8600083018661119c565b81810360208301526112ea818561128a565b905081810360408301526112fe818461128a565b9050949350505050565b600081519050919050565b600082825260208201905092915050565b6000819050602082019050919050565b61133d81611192565b82525050565b600082825260208201905092915050565b600061135f82611233565b6113698185611343565b935061137981856020860161124f565b61138281611279565b840191505092915050565b600081519050919050565b600082825260208201905092915050565b6000819050602082019050919050565b60006113c58383611354565b905092915050565b6000602082019050919050565b60006113e58261138d565b6113ef8185611398565b935083602082028501611401856113a9565b8060005b8581101561143d578484038952815161141e85826113b9565b9450611429836113cd565b925060208a01995050600181019050611405565b50829750879550505050505092915050565b60006080830160008301516114676000860182611334565b506020830151848203602086015261147f8282611354565b915050604083015184820360408601526114998282611354565b915050606083015184820360608601526114b382826113da565b9150508091505092915050565b60006114cc838361144f565b905092915050565b6000602082019050919050565b60006114ec82611308565b6114f68185611313565b93508360208202850161150885611324565b8060005b85811015611544578484038952815161152585826114c0565b9450611530836114d4565b925060208a0199505060018101905061150c565b50829750879550505050505092915050565b6000602082019050818103600083015261157081846114e1565b905092915050565b60006080830160008301516115906000860182611334565b50602083015184820360208601526115a88282611354565b915050604083015184820360408601526115c28282611354565b915050606083015184820360608601526115dc82826113da565b9150508091505092915050565b600060208201905081810360008301526116038184611578565b905092915050565b600081519050919050565b600082825260208201905092915050565b6000819050602082019050919050565b600060808301600083015161164f6000860182611334565b50602083015184820360208601526116678282611354565b915050604083015184820360408601526116818282611354565b9150506060830151848203606086015261169b82826113da565b9150508091505092915050565b60006116b48383611637565b905092915050565b6000602082019050919050565b60006116d48261160b565b6116de8185611616565b9350836020820285016116f085611627565b8060005b8581101561172c578484038952815161170d85826116a8565b9450611718836116bc565b925060208a019950506001810190506116f4565b50829750879550505050505092915050565b6000602082019050818103600083015261175881846116c9565b905092915050565b600080fd5b600080fd5b7f4e487b7100000000000000000000000000000000000000000000000000000000600052604160045260246000fd5b6117a282611279565b810181811067ffffffffffffffff821117156117c1576117c061176a565b5b80604052505050565b60006117d46111c6565b90506117e08282611799565b919050565b600067ffffffffffffffff821115611800576117ff61176a565b5b61180982611279565b9050602081019050919050565b82818337600083830152505050565b6000611838611833846117e5565b6117ca565b90508281526020810184848401111561185457611853611765565b5b61185f848285611816565b509392505050565b600082601f83011261187c5761187b611760565b5b813561188c848260208601611825565b91505092915050565b600067ffffffffffffffff8211156118b0576118af61176a565b5b602082029050602081019050919050565b600080fd5b60006118d96118d484611895565b6117ca565b905080838252602082019050602084028301858111156118fc576118fb6118c1565b5b835b8181101561194357803567ffffffffffffffff81111561192157611920611760565b5b80860161192e8982611867565b855260208501945050506020810190506118fe565b5050509392505050565b600082601f83011261196257611961611760565b5b81356119728482602086016118c6565b91505092915050565b60008060008060808587031215611995576119946111d0565b5b60006119a3878288016111f1565b945050602085013567ffffffffffffffff8111156119c4576119c36111d5565b5b6119d087828801611867565b935050604085013567ffffffffffffffff8111156119f1576119f06111d5565b5b6119fd87828801611867565b925050606085013567ffffffffffffffff811115611a1e57611a1d6111d5565b5b611a2a8782880161194d565b91505092959194509250565b6000608083016000830151611a4e6000860182611334565b5060208301518482036020860152611a668282611354565b91505060408301518482036040860152611a808282611354565b91505060608301518482036060860152611a9a82826113da565b9150508091505092915050565b60006020820190508181036000830152611ac18184611a36565b905092915050565b7f4e487b7100000000000000000000000000000000000000000000000000000000600052602260045260246000fd5b60006002820490506001821680611b1057607f821691505b602082108103611b2357611b22611ac9565b5b50919050565b7f4e487b7100000000000000000000000000000000000000000000000000000000600052603260045260246000fd5b7f4e487b7100000000000000000000000000000000000000000000000000000000600052601160045260246000fd5b6000611b9282611192565b91507fffffffffffffffffffffffffffffffffffffffffffffffffffffffffffffffff8203611bc457611bc3611b58565b5b600182019050919050565b60008190508160005260206000209050919050565b60006020601f8301049050919050565b600082821b905092915050565b600060088302611c317fffffffffffffffffffffffffffffffffffffffffffffffffffffffffffffffff82611bf4565b611c3b8683611bf4565b95508019841693508086168417925050509392505050565b6000819050919050565b6000611c78611c73611c6e84611192565b611c53565b611192565b9050919050565b6000819050919050565b611c9283611c5d565b611ca6611c9e82611c7f565b848454611c01565b825550505050565b600090565b611cbb611cae565b611cc6818484611c89565b505050565b5b81811015611cea57611cdf600082611cb3565b600181019050611ccc565b5050565b601f821115611d2f57611d0081611bcf565b611d0984611be4565b81016020851015611d18578190505b611d2c611d2485611be4565b830182611ccb565b50505b505050565b600082821c905092915050565b6000611d5260001984600802611d34565b1980831691505092915050565b6000611d6b8383611d41565b9150826002028217905092915050565b611d8482611233565b67ffffffffffffffff811115611d9d57611d9c61176a565b5b611da78254611af8565b611db2828285611cee565b600060209050601f831160018114611de55760008415611dd3578287015190505b611ddd8582611d5f565b865550611e45565b601f198416611df386611bcf565b60005b82811015611e1b57848901518255600182019150602085019450602081019050611df6565b86831015611e385784890151611e34601f891682611d41565b8355505b6001600288020188555050505b50505050505056fea26469706673582212207e089ff566348ad2653b0f7a7e607803a09978b6af758b163b3af3908d0712ca64736f6c63430008120033",
  "immutableReferences": {},
  "source": "// SPDX-License-Identifier: MIT\r\npragma solidity >=0.4.22 <0.9.0;\r\n\r\ncontract BatteryStorage{\r\n\r\n    /* --- Globals --- */\r\n\r\n    uint256 MaterialCount = 0;\r\n    uint256 BatteryCount = 0;\r\n\r\n    function getMaterialCount() public view returns (uint256) {\r\n        return MaterialCount;\r\n    }\r\n\r\n    function getBatteryCount() public view returns (uint256) {\r\n        return BatteryCount;\r\n    }\r\n\r\n    /* --- End Globals --- */\r\n\r\n    //Data object to represent the materials\r\n    struct Material { \r\n        uint256 unique_id;\r\n        string description;\r\n        string manufacturer;\r\n        string[] certifications;\r\n    }\r\n\r\n    //Data object to represent the batteries\r\n    struct Battery {\r\n        uint256 unique_id;\r\n        string description;\r\n        string state;\r\n        string[] materials; \r\n    }\r\n\r\n    /* --- Event Declaration --- */\r\n\r\n    event LogMaterial(Material newMaterial);\r\n    event LogBattery(Battery newBattery);\r\n\r\n    /* --- End Event Declaration --- */\r\n\r\n    //Map to store the materials\r\n    mapping(uint256 => Material) public materials;\r\n\r\n    //Map to store the batteries\r\n    mapping(uint256 => Battery) public batteries;\r\n\r\n    // Get all materials\r\n    function getMaterials() public view returns (Material[] memory){\r\n        Material[] memory ret = new Material[](MaterialCount);\r\n\r\n        for (uint256 i = 0; i < MaterialCount; i++) {\r\n            ret[i] = materials[i];\r\n        }\r\n\r\n        return ret;\r\n    }\r\n \r\n    // Material getter by id\r\n    function getMaterial(uint256 unique_id) public view returns (Material memory){ \r\n        Material memory material = materials[unique_id];\r\n        return material;\r\n    }\r\n\r\n    // Material setter\r\n    function setMaterial(uint256 unique_id, string memory description, string memory manufacturer, string[] memory certifications) public {\r\n        Material memory material = Material(unique_id, description, manufacturer, certifications);\r\n        materials[unique_id] = material;\r\n        MaterialCount++;\r\n        emit LogMaterial(material);\r\n    }\r\n\r\n    // Get all batteries\r\n    function getBatteries() public view returns (Battery[] memory){\r\n        Battery[] memory ret = new Battery[](BatteryCount);\r\n\r\n        for (uint256 i = 0; i < BatteryCount; i++) {\r\n            ret[i] = batteries[i];\r\n        }\r\n\r\n        return ret;\r\n    }\r\n\r\n    // Battery getter by id\r\n    function getBattery(uint256 unique_id) public view returns (Battery memory){\r\n        Battery memory battery = batteries[unique_id];\r\n        return battery;\r\n    }\r\n\r\n    // Battery setter\r\n    function setBattery(uint256 unique_id, string memory description, string memory state, string[] memory input_materials) public {\r\n        Battery memory battery = Battery(unique_id, description, state, input_materials);\r\n        batteries[unique_id] = battery;\r\n        BatteryCount++;\r\n        emit LogBattery(battery);\r\n    }\r\n}",
  "sourcePath": "C:\\Users\\pedro\\Development\\EthCRUD\\truffle\\contracts\\BatteryStorage.sol",
  "compiler": {
    "name": "solc",
    "version": "0.8.18+commit.87f61d96.Emscripten.clang"
  },
  "schemaVersion": "3.4.13",
  "updatedAt": "2023-04-10T17:27:35.882Z",
  "devdoc": {
    "kind": "dev",
    "methods": {},
    "version": 1
  },
  "userdoc": {
    "kind": "user",
    "methods": {},
    "version": 1
  }
}